{
  "address": "0x9fE46736679d2D9a65F0992F2272dE9f3c7fa6e0",
  "abi": [
    {
      "inputs": [
        {
          "internalType": "uint256",
          "name": "_basicPrice",
          "type": "uint256"
        },
        {
          "internalType": "uint256",
          "name": "_proPrice",
          "type": "uint256"
        },
        {
          "internalType": "uint256",
          "name": "_enterprisePrice",
          "type": "uint256"
        },
        {
          "internalType": "uint256",
          "name": "_subscriptionDuration",
          "type": "uint256"
        }
      ],
      "stateMutability": "nonpayable",
      "type": "constructor"
    },
    {
      "inputs": [
        {
          "internalType": "address",
          "name": "owner",
          "type": "address"
        }
      ],
      "name": "OwnableInvalidOwner",
      "type": "error"
    },
    {
      "inputs": [
        {
          "internalType": "address",
          "name": "account",
          "type": "address"
        }
      ],
      "name": "OwnableUnauthorizedAccount",
      "type": "error"
    },
    {
      "anonymous": false,
      "inputs": [
        {
          "indexed": true,
          "internalType": "address",
          "name": "owner",
          "type": "address"
        },
        {
          "indexed": false,
          "internalType": "uint256",
          "name": "amount",
          "type": "uint256"
        }
      ],
      "name": "FundsWithdrawn",
      "type": "event"
    },
    {
      "anonymous": false,
      "inputs": [
        {
          "indexed": true,
          "internalType": "address",
          "name": "previousOwner",
          "type": "address"
        },
        {
          "indexed": true,
          "internalType": "address",
          "name": "newOwner",
          "type": "address"
        }
      ],
      "name": "OwnershipTransferred",
      "type": "event"
    },
    {
      "anonymous": false,
      "inputs": [
        {
          "indexed": true,
          "internalType": "address",
          "name": "user",
          "type": "address"
        },
        {
          "indexed": false,
          "internalType": "enum SubscriptionManager.Plan",
          "name": "oldPlan",
          "type": "uint8"
        },
        {
          "indexed": false,
          "internalType": "enum SubscriptionManager.Plan",
          "name": "newPlan",
          "type": "uint8"
        },
        {
          "indexed": false,
          "internalType": "uint256",
          "name": "expiry",
          "type": "uint256"
        }
      ],
      "name": "PlanDowngraded",
      "type": "event"
    },
    {
      "anonymous": false,
      "inputs": [
        {
          "indexed": true,
          "internalType": "address",
          "name": "user",
          "type": "address"
        },
        {
          "indexed": false,
          "internalType": "enum SubscriptionManager.Plan",
          "name": "oldPlan",
          "type": "uint8"
        },
        {
          "indexed": false,
          "internalType": "enum SubscriptionManager.Plan",
          "name": "newPlan",
          "type": "uint8"
        },
        {
          "indexed": false,
          "internalType": "uint256",
          "name": "expiry",
          "type": "uint256"
        }
      ],
      "name": "PlanUpgraded",
      "type": "event"
    },
    {
      "anonymous": false,
      "inputs": [
        {
          "indexed": false,
          "internalType": "uint256",
          "name": "basicPrice",
          "type": "uint256"
        },
        {
          "indexed": false,
          "internalType": "uint256",
          "name": "proPrice",
          "type": "uint256"
        },
        {
          "indexed": false,
          "internalType": "uint256",
          "name": "enterprisePrice",
          "type": "uint256"
        }
      ],
      "name": "PriceUpdated",
      "type": "event"
    },
    {
      "anonymous": false,
      "inputs": [
        {
          "indexed": true,
          "internalType": "address",
          "name": "user",
          "type": "address"
        },
        {
          "indexed": false,
          "internalType": "enum SubscriptionManager.Plan",
          "name": "plan",
          "type": "uint8"
        },
        {
          "indexed": false,
          "internalType": "uint256",
          "name": "expiry",
          "type": "uint256"
        }
      ],
      "name": "Subscribed",
      "type": "event"
    },
    {
      "anonymous": false,
      "inputs": [
        {
          "indexed": true,
          "internalType": "address",
          "name": "user",
          "type": "address"
        }
      ],
      "name": "Unsubscribed",
      "type": "event"
    },
    {
      "inputs": [
        {
          "internalType": "address",
          "name": "",
          "type": "address"
        }
      ],
      "name": "activeSubscriptions",
      "outputs": [
        {
          "internalType": "uint256",
          "name": "expiry",
          "type": "uint256"
        },
        {
          "internalType": "enum SubscriptionManager.Plan",
          "name": "planId",
          "type": "uint8"
        }
      ],
      "stateMutability": "view",
      "type": "function"
    },
    {
      "inputs": [],
      "name": "basicPrice",
      "outputs": [
        {
          "internalType": "uint256",
          "name": "",
          "type": "uint256"
        }
      ],
      "stateMutability": "view",
      "type": "function"
    },
    {
      "inputs": [],
      "name": "enterprisePrice",
      "outputs": [
        {
          "internalType": "uint256",
          "name": "",
          "type": "uint256"
        }
      ],
      "stateMutability": "view",
      "type": "function"
    },
    {
      "inputs": [
        {
          "internalType": "enum SubscriptionManager.Plan",
          "name": "_plan",
          "type": "uint8"
        }
      ],
      "name": "getPlanPrice",
      "outputs": [
        {
          "internalType": "uint256",
          "name": "",
          "type": "uint256"
        }
      ],
      "stateMutability": "view",
      "type": "function"
    },
    {
      "inputs": [
        {
          "internalType": "address",
          "name": "user",
          "type": "address"
        }
      ],
      "name": "issUserSubscribed",
      "outputs": [
        {
          "internalType": "bool",
          "name": "",
          "type": "bool"
        }
      ],
      "stateMutability": "view",
      "type": "function"
    },
    {
      "inputs": [],
      "name": "owner",
      "outputs": [
        {
          "internalType": "address",
          "name": "",
          "type": "address"
        }
      ],
      "stateMutability": "view",
      "type": "function"
    },
    {
      "inputs": [],
      "name": "proPrice",
      "outputs": [
        {
          "internalType": "uint256",
          "name": "",
          "type": "uint256"
        }
      ],
      "stateMutability": "view",
      "type": "function"
    },
    {
      "inputs": [],
      "name": "renounceOwnership",
      "outputs": [],
      "stateMutability": "nonpayable",
      "type": "function"
    },
    {
      "inputs": [
        {
          "internalType": "uint256",
          "name": "_basicPrice",
          "type": "uint256"
        },
        {
          "internalType": "uint256",
          "name": "_proPrice",
          "type": "uint256"
        },
        {
          "internalType": "uint256",
          "name": "_enterprisePrice",
          "type": "uint256"
        }
      ],
      "name": "setPrices",
      "outputs": [],
      "stateMutability": "nonpayable",
      "type": "function"
    },
    {
      "inputs": [
        {
          "internalType": "uint256",
          "name": "_duration",
          "type": "uint256"
        }
      ],
      "name": "setSubscriptionDuration",
      "outputs": [],
      "stateMutability": "nonpayable",
      "type": "function"
    },
    {
      "inputs": [
        {
          "internalType": "enum SubscriptionManager.Plan",
          "name": "_plan",
          "type": "uint8"
        }
      ],
      "name": "subscribe",
      "outputs": [],
      "stateMutability": "payable",
      "type": "function"
    },
    {
      "inputs": [],
      "name": "subscriptionDuration",
      "outputs": [
        {
          "internalType": "uint256",
          "name": "",
          "type": "uint256"
        }
      ],
      "stateMutability": "view",
      "type": "function"
    },
    {
      "inputs": [
        {
          "internalType": "address",
          "name": "newOwner",
          "type": "address"
        }
      ],
      "name": "transferOwnership",
      "outputs": [],
      "stateMutability": "nonpayable",
      "type": "function"
    },
    {
      "inputs": [],
      "name": "unsubscribe",
      "outputs": [],
      "stateMutability": "nonpayable",
      "type": "function"
    },
    {
      "inputs": [
        {
          "internalType": "enum SubscriptionManager.Plan",
          "name": "_newPlan",
          "type": "uint8"
        }
      ],
      "name": "upgradePlan",
      "outputs": [],
      "stateMutability": "payable",
      "type": "function"
    },
    {
      "inputs": [
        {
          "internalType": "uint256",
          "name": "amount",
          "type": "uint256"
        }
      ],
      "name": "withdrawFunds",
      "outputs": [],
      "stateMutability": "nonpayable",
      "type": "function"
    }
  ],
  "transactionHash": "0xc98b33bd0182ffac14de5109174f3244a8f35d401de7b809fe40a6e18bb4ca60",
  "args": [
    "1000000000000000",
    "5000000000000000",
    "8000000000000000",
    "2600000"
  ],
  "numDeployments": 1,
  "solcInputHash": "2d3a9a2614dc5ac2d9b67e46599bfb58",
  "bytecode": "0x608060405234801561001057600080fd5b50604051610c4b380380610c4b83398101604081905261002f916100c6565b338061005557604051631e4fbdf760e01b81526000600482015260240160405180910390fd5b61005e81610076565b506001939093556002919091556003556004556100fc565b600080546001600160a01b038381166001600160a01b0319831681178455604051919092169283917f8be0079c531659141344cd1fd0a4f28419497f9722a3daafe3b4186f6b6457e09190a35050565b600080600080608085870312156100dc57600080fd5b505082516020840151604085015160609095015191969095509092509050565b610b408061010b6000396000f3fe6080604052600436106100f35760003560e01c80638da5cb5b1161008a578063db9191dd11610059578063db9191dd146102a9578063f2fde38b146102bf578063fcae4484146102df578063fdd5d01d146102f457600080fd5b80638da5cb5b146101fc578063a88fe42d14610224578063ca1140f914610244578063cac3c4d21461028957600080fd5b806362aaa325116100c657806362aaa3251461019e57806364760b6f146101b1578063715018a6146101d15780637a94a633146101e657600080fd5b80630739ad35146100f8578063155dd5ee1461014557806349c7e6391461016757806353b0e17d1461017a575b600080fd5b34801561010457600080fd5b50610130610113366004610960565b6001600160a01b0316600090815260056020526040902054421090565b60405190151581526020015b60405180910390f35b34801561015157600080fd5b50610165610160366004610990565b61030a565b005b6101656101753660046109a9565b6103f2565b34801561018657600080fd5b5061019060025481565b60405190815260200161013c565b6101656101ac3660046109a9565b610562565b3480156101bd57600080fd5b506101906101cc3660046109a9565b610717565b3480156101dd57600080fd5b506101656107b2565b3480156101f257600080fd5b5061019060045481565b34801561020857600080fd5b506000546040516001600160a01b03909116815260200161013c565b34801561023057600080fd5b5061016561023f3660046109ca565b6107c6565b34801561025057600080fd5b5061027b61025f366004610960565b6005602052600090815260409020805460019091015460ff1682565b60405161013c929190610a2e565b34801561029557600080fd5b506101656102a4366004610990565b610823565b3480156102b557600080fd5b5061019060015481565b3480156102cb57600080fd5b506101656102da366004610960565b610830565b3480156102eb57600080fd5b5061016561086e565b34801561030057600080fd5b5061019060035481565b6103126108e3565b804710156103675760405162461bcd60e51b815260206004820152601d60248201527f496e73756666696369656e7420636f6e74726163742062616c616e636500000060448201526064015b60405180910390fd5b600080546040516001600160a01b039091169183156108fc02918491818181858888f193505050501580156103a0573d6000803e3d6000fd5b506000546001600160a01b03166001600160a01b03167feaff4b37086828766ad3268786972c0cd24259d4c87a80f9d3963a3c3d999b0d826040516103e791815260200190565b60405180910390a250565b60006103fd82610717565b905080341461044e5760405162461bcd60e51b815260206004820152601a60248201527f496e636f727265637420737562736372697074696f6e20666565000000000000604482015260640161035e565b60006004544261045e9190610a58565b336000908152600560205260409020549091504211156104b35733600090815260056020526040902060019081018054859260ff19909116908360028111156104a9576104a96109f6565b0217905550610511565b3360009081526005602052604090205481116105115760405162461bcd60e51b815260206004820152601860248201527f457870697279206f766572666c6f772064657465637465640000000000000000604482015260640161035e565b3360008181526005602052604090819020839055517f044f95a2d17727b5b87e4f23d70278b59a2b0b285289cc9021cac8cdba4797b7906105559086908590610a71565b60405180910390a2505050565b3360008181526005602052604090205442106105905760405162461bcd60e51b815260040161035e90610a8c565b3360009081526005602052604090206001015460ff168060028111156105b8576105b86109f6565b8360028111156105ca576105ca6109f6565b116106215760405162461bcd60e51b815260206004820152602160248201527f43616e206f6e6c79207570677261646520746f20612068696768657220706c616044820152603760f91b606482015260840161035e565b600061062c82610717565b61063585610717565b61063f9190610ace565b90508034146106905760405162461bcd60e51b815260206004820181905260248201527f496e636f72726563742076616c75652073656e7420666f722075706772616465604482015260640161035e565b33600090815260056020526040902060019081018054869260ff19909116908360028111156106c1576106c16109f6565b021790555033600081815260056020526040908190205490517fd2c1d3b2cacc52d0b8d1de6b5eb789780c85c7c626bde0fbb2d30ec696b153f5916107099186918991610ae1565b60405180910390a250505050565b60008082600281111561072c5761072c6109f6565b0361073957505060015490565b600182600281111561074d5761074d6109f6565b0361075a57505060025490565b600282600281111561076e5761076e6109f6565b0361077b57505060035490565b60405162461bcd60e51b815260206004820152600c60248201526b24b73b30b634b210383630b760a11b604482015260640161035e565b6107ba6108e3565b6107c46000610910565b565b6107ce6108e3565b60018390556002829055600381905560408051848152602081018490529081018290527f15819dd2fd9f6418b142e798d08a18d0bf06ea368f4480b7b0d3f75bd966bc489060600160405180910390a1505050565b61082b6108e3565b600455565b6108386108e3565b6001600160a01b03811661086257604051631e4fbdf760e01b81526000600482015260240161035e565b61086b81610910565b50565b33600081815260056020526040902054421061089c5760405162461bcd60e51b815260040161035e90610a8c565b3360008181526005602052604080822060018101805460ff19169055829055517fae563681ccc696fae58fe830f401bc9c043a43ddb9f7c2830b32c3c70d9966e79190a250565b6000546001600160a01b031633146107c45760405163118cdaa760e01b815233600482015260240161035e565b600080546001600160a01b038381166001600160a01b0319831681178455604051919092169283917f8be0079c531659141344cd1fd0a4f28419497f9722a3daafe3b4186f6b6457e09190a35050565b60006020828403121561097257600080fd5b81356001600160a01b038116811461098957600080fd5b9392505050565b6000602082840312156109a257600080fd5b5035919050565b6000602082840312156109bb57600080fd5b81356003811061098957600080fd5b6000806000606084860312156109df57600080fd5b505081359360208301359350604090920135919050565b634e487b7160e01b600052602160045260246000fd5b60038110610a2a57634e487b7160e01b600052602160045260246000fd5b9052565b828152604081016109896020830184610a0c565b634e487b7160e01b600052601160045260246000fd5b80820180821115610a6b57610a6b610a42565b92915050565b60408101610a7f8285610a0c565b8260208301529392505050565b60208082526022908201527f537562736372697074696f6e2065787069726564206f72206e6f742061637469604082015261766560f01b606082015260800190565b81810381811115610a6b57610a6b610a42565b60608101610aef8286610a0c565b610afc6020830185610a0c565b82604083015294935050505056fea26469706673582212203f9233f35e4fbdeffed2ac3a69585fd10a799a2afdaf7d218e6588bf34cde8f964736f6c63430008140033",
  "devdoc": {
    "errors": {
      "OwnableInvalidOwner(address)": [
        {
          "details": "The owner is not a valid owner account. (eg. `address(0)`)"
        }
      ],
      "OwnableUnauthorizedAccount(address)": [
        {
          "details": "The caller account is not authorized to perform an operation."
        }
      ]
    },
    "kind": "dev",
    "methods": {
      "owner()": {
        "details": "Returns the address of the current owner."
      },
      "renounceOwnership()": {
        "details": "Leaves the contract without owner. It will not be possible to call `onlyOwner` functions. Can only be called by the current owner. NOTE: Renouncing ownership will leave the contract without an owner, thereby disabling any functionality that is only available to the owner."
      },
      "transferOwnership(address)": {
        "details": "Transfers ownership of the contract to a new account (`newOwner`). Can only be called by the current owner."
      }
    },
    "version": 1
  },
  "userdoc": {
    "kind": "user",
    "methods": {},
    "version": 1
  },
  "storageLayout": {
    "storage": [
      {
        "astId": 8,
        "contract": "contracts/SubscriptionManager.sol:SubscriptionManager",
        "label": "_owner",
        "offset": 0,
        "slot": "0",
        "type": "t_address"
      },
      {
        "astId": 8181,
        "contract": "contracts/SubscriptionManager.sol:SubscriptionManager",
        "label": "basicPrice",
        "offset": 0,
        "slot": "1",
        "type": "t_uint256"
      },
      {
        "astId": 8183,
        "contract": "contracts/SubscriptionManager.sol:SubscriptionManager",
        "label": "proPrice",
        "offset": 0,
        "slot": "2",
        "type": "t_uint256"
      },
      {
        "astId": 8185,
        "contract": "contracts/SubscriptionManager.sol:SubscriptionManager",
        "label": "enterprisePrice",
        "offset": 0,
        "slot": "3",
        "type": "t_uint256"
      },
      {
        "astId": 8187,
        "contract": "contracts/SubscriptionManager.sol:SubscriptionManager",
        "label": "subscriptionDuration",
        "offset": 0,
        "slot": "4",
        "type": "t_uint256"
      },
      {
        "astId": 8198,
        "contract": "contracts/SubscriptionManager.sol:SubscriptionManager",
        "label": "activeSubscriptions",
        "offset": 0,
        "slot": "5",
        "type": "t_mapping(t_address,t_struct(Subscription)8193_storage)"
      }
    ],
    "types": {
      "t_address": {
        "encoding": "inplace",
        "label": "address",
        "numberOfBytes": "20"
      },
      "t_enum(Plan)8179": {
        "encoding": "inplace",
        "label": "enum SubscriptionManager.Plan",
        "numberOfBytes": "1"
      },
      "t_mapping(t_address,t_struct(Subscription)8193_storage)": {
        "encoding": "mapping",
        "key": "t_address",
        "label": "mapping(address => struct SubscriptionManager.Subscription)",
        "numberOfBytes": "32",
        "value": "t_struct(Subscription)8193_storage"
      },
      "t_struct(Subscription)8193_storage": {
        "encoding": "inplace",
        "label": "struct SubscriptionManager.Subscription",
        "members": [
          {
            "astId": 8189,
            "contract": "contracts/SubscriptionManager.sol:SubscriptionManager",
            "label": "expiry",
            "offset": 0,
            "slot": "0",
            "type": "t_uint256"
          },
          {
            "astId": 8192,
            "contract": "contracts/SubscriptionManager.sol:SubscriptionManager",
            "label": "planId",
            "offset": 0,
            "slot": "1",
            "type": "t_enum(Plan)8179"
          }
        ],
        "numberOfBytes": "64"
      },
      "t_uint256": {
        "encoding": "inplace",
        "label": "uint256",
        "numberOfBytes": "32"
      }
    }
  }
}